{
  "transactions": [
    {
      "hash": "0xd4d6251afcb37a3178b53b64b532d7e84f34384a7cab526b9bb89db2d46a6f83",
      "transactionType": "CALL",
      "contractName": null,
      "contractAddress": "0x287adef130eb012f43a57b2f074f57c2e63b1dcb",
      "function": "addExecutor(address)",
      "arguments": [
        "0xF00b3321E87d0CFABe761B18A84333537e97E055"
      ],
      "transaction": {
        "from": "0xf00b3321e87d0cfabe761b18a84333537e97e055",
        "to": "0x287adef130eb012f43a57b2f074f57c2e63b1dcb",
        "gas": "0x93ea",
        "value": "0x0",
        "input": "0x1f5a0bbe000000000000000000000000f00b3321e87d0cfabe761b18a84333537e97e055",
        "nonce": "0x13",
        "chainId": "0xaa36a7"
      },
      "additionalContracts": [],
      "isFixedGasLimit": false
    }
  ],
  "receipts": [
    {
      "status": "0x1",
      "cumulativeGasUsed": "0x11f3cee",
      "logs": [
        {
          "address": "0x287adef130eb012f43a57b2f074f57c2e63b1dcb",
          "topics": [
            "0xae5b7c3b000f575c241001dc9bcb3d8778376889353b07121115574eceff78c5",
            "0x000000000000000000000000f00b3321e87d0cfabe761b18a84333537e97e055"
          ],
          "data": "0x",
          "blockHash": "0x14cf9242d160b9ebe62e4415bb13d49ca058a51501033849024847e744490d6d",
          "blockNumber": "0x90caf3",
          "blockTimestamp": "0x68fd2094",
          "transactionHash": "0xd4d6251afcb37a3178b53b64b532d7e84f34384a7cab526b9bb89db2d46a6f83",
          "transactionIndex": "0x91",
          "logIndex": "0xef",
          "removed": false
        }
      ],
      "logsBloom": "0x00000020000000000000000000000000000000000000000000040000000000000000000000000000000000000000000000000000000000000000000000002000000000000000000004000000000000000000000000000000000000000000000000000000000000000000000000000000000000000000000000010000000000000000008000000000000000000000000000000000000000000000000010000000000000000000000000000000000000000000000000000000000000000000000000000000000000000000000000000000000000000000000008000000000000000000000200000000000000000000000000000000000000000000000000000000",
      "type": "0x2",
      "transactionHash": "0xd4d6251afcb37a3178b53b64b532d7e84f34384a7cab526b9bb89db2d46a6f83",
      "transactionIndex": "0x91",
      "blockHash": "0x14cf9242d160b9ebe62e4415bb13d49ca058a51501033849024847e744490d6d",
      "blockNumber": "0x90caf3",
      "gasUsed": "0x6b17",
      "effectiveGasPrice": "0xf4249",
      "from": "0xf00b3321e87d0cfabe761b18a84333537e97e055",
      "to": "0x287adef130eb012f43a57b2f074f57c2e63b1dcb",
      "contractAddress": null
    }
  ],
  "libraries": [],
  "pending": [],
  "returns": {},
  "timestamp": 1761419410,
  "chain": 11155111,
  "commit": "ed447ff"
}