{
  "transactions": [
    {
      "hash": "0x102c935843b1d2d301c1b344e13bba09dbb73ab3d3ef4d71c3bb59a4688a78bf",
      "transactionType": "CALL",
      "contractName": null,
      "contractAddress": "0xd7e96fb0ae8aa572466f668445ea558266cc4b34",
      "function": "addExecutor(address)",
      "arguments": [
        "0xF00b3321E87d0CFABe761B18A84333537e97E055"
      ],
      "transaction": {
        "from": "0xf00b3321e87d0cfabe761b18a84333537e97e055",
        "to": "0xd7e96fb0ae8aa572466f668445ea558266cc4b34",
        "gas": "0x93ea",
        "value": "0x0",
        "input": "0x1f5a0bbe000000000000000000000000f00b3321e87d0cfabe761b18a84333537e97e055",
        "nonce": "0x1c",
        "chainId": "0xaa36a7"
      },
      "additionalContracts": [],
      "isFixedGasLimit": false
    }
  ],
  "receipts": [
    {
      "status": "0x1",
      "cumulativeGasUsed": "0xc7d32d",
      "logs": [
        {
          "address": "0xd7e96fb0ae8aa572466f668445ea558266cc4b34",
          "topics": [
            "0xae5b7c3b000f575c241001dc9bcb3d8778376889353b07121115574eceff78c5",
            "0x000000000000000000000000f00b3321e87d0cfabe761b18a84333537e97e055"
          ],
          "data": "0x",
          "blockHash": "0x6fcbfe98ffb813ad8d6717ff128d4094cc6fef2a9a4de48f85287427b58af2e8",
          "blockNumber": "0x90cd19",
          "blockTimestamp": "0x68fd3a74",
          "transactionHash": "0x102c935843b1d2d301c1b344e13bba09dbb73ab3d3ef4d71c3bb59a4688a78bf",
          "transactionIndex": "0x5f",
          "logIndex": "0x86",
          "removed": false
        }
      ],
      "logsBloom": "0x00020000000000000000000000000004000000000000000000040000000000000000020000000000000000000000000000000000000000000000000000002000000000000000000004000000000000000000000000000000000000000000000000000000000000000000000000000000000000000000000000010000000000000000008000000000000000000000000000000000000000000000000000000000000000000000000000000000000000000000000000000000000000000000000000000000000000000000000000000000000000000000000000000000000000000000000200000000000000000000000000000000000000000000000000000000",
      "type": "0x2",
      "transactionHash": "0x102c935843b1d2d301c1b344e13bba09dbb73ab3d3ef4d71c3bb59a4688a78bf",
      "transactionIndex": "0x5f",
      "blockHash": "0x6fcbfe98ffb813ad8d6717ff128d4094cc6fef2a9a4de48f85287427b58af2e8",
      "blockNumber": "0x90cd19",
      "gasUsed": "0x6b17",
      "effectiveGasPrice": "0xf4243",
      "from": "0xf00b3321e87d0cfabe761b18a84333537e97e055",
      "to": "0xd7e96fb0ae8aa572466f668445ea558266cc4b34",
      "contractAddress": null
    }
  ],
  "libraries": [],
  "pending": [],
  "returns": {},
  "timestamp": 1761426036,
  "chain": 11155111,
  "commit": "ed447ff"
}