{
  "transactions": [
    {
      "hash": "0xe5ef4bcbedd66c98dab90a04d52f87296bb4d8ea330c2a96e508c73116d226ef",
      "transactionType": "CALL",
      "contractName": null,
      "contractAddress": "0xcac524bca292aaade2df8a05cc58f0a65b1b3bb9",
      "function": "approve(address,uint256)",
      "arguments": [
        "0x5922ED4eaE4DB949A340ca85915f9ca51B7b3061",
        "115792089237316195423570985008687907853269984665640564039457584007913129639935"
      ],
      "transaction": {
        "from": "0xf00b3321e87d0cfabe761b18a84333537e97e055",
        "to": "0xcac524bca292aaade2df8a05cc58f0a65b1b3bb9",
        "gas": "0x14661",
        "value": "0x0",
        "input": "0x095ea7b30000000000000000000000005922ed4eae4db949a340ca85915f9ca51b7b3061ffffffffffffffffffffffffffffffffffffffffffffffffffffffffffffffff",
        "nonce": "0xf",
        "chainId": "0xaa36a7"
      },
      "additionalContracts": [],
      "isFixedGasLimit": false
    }
  ],
  "receipts": [
    {
      "status": "0x1",
      "cumulativeGasUsed": "0x2fb8905",
      "logs": [
        {
          "address": "0xcac524bca292aaade2df8a05cc58f0a65b1b3bb9",
          "topics": [
            "0x8c5be1e5ebec7d5bd14f71427d1e84f3dd0314c0f7b2291e5b200ac8c7c3b925",
            "0x000000000000000000000000f00b3321e87d0cfabe761b18a84333537e97e055",
            "0x0000000000000000000000005922ed4eae4db949a340ca85915f9ca51b7b3061"
          ],
          "data": "0xffffffffffffffffffffffffffffffffffffffffffffffffffffffffffffffff",
          "blockHash": "0x6c7c0c6c1b7d1028d3157c7b06e49ab679bc2b92456bc939d41d6b7e7d147b90",
          "blockNumber": "0x90c8a8",
          "blockTimestamp": "0x68fd04f8",
          "transactionHash": "0xe5ef4bcbedd66c98dab90a04d52f87296bb4d8ea330c2a96e508c73116d226ef",
          "transactionIndex": "0x79",
          "logIndex": "0x2f96",
          "removed": false
        }
      ],
      "logsBloom": "0x00000000000000000000000000000000000000000000000000040000000000000000000000000000000000000000800000000000000000000000000100200000000000000000000000000000000000000000000000000000000000000000000000000000000000000000000000104000000000000000000000010000000000000000008000000000000000000000000000000000000000000000000000000000020000000000000000000000000040000000000000000000000000000000000000000000000000000000000000000000200000000000000000000000000000000010000000000000000000000000000000000000000000000000000000000000",
      "type": "0x2",
      "transactionHash": "0xe5ef4bcbedd66c98dab90a04d52f87296bb4d8ea330c2a96e508c73116d226ef",
      "transactionIndex": "0x79",
      "blockHash": "0x6c7c0c6c1b7d1028d3157c7b06e49ab679bc2b92456bc939d41d6b7e7d147b90",
      "blockNumber": "0x90c8a8",
      "gasUsed": "0xec4c",
      "effectiveGasPrice": "0x87807",
      "from": "0xf00b3321e87d0cfabe761b18a84333537e97e055",
      "to": "0xcac524bca292aaade2df8a05cc58f0a65b1b3bb9",
      "contractAddress": null
    }
  ],
  "libraries": [],
  "pending": [],
  "returns": {},
  "timestamp": 1761412345,
  "chain": 11155111,
  "commit": "c884603"
}