{
  "transactions": [
    {
      "hash": "0x1e8dc40787efdb91ae1849a78ded61b7e4e77016649e656f0227ac6ae8207919",
      "transactionType": "CALL",
      "contractName": null,
      "contractAddress": "0xcac524bca292aaade2df8a05cc58f0a65b1b3bb9",
      "function": "approve(address,uint256)",
      "arguments": [
        "0x287aDef130Eb012f43A57B2F074f57c2e63B1dcB",
        "115792089237316195423570985008687907853269984665640564039457584007913129639935"
      ],
      "transaction": {
        "from": "0xf00b3321e87d0cfabe761b18a84333537e97e055",
        "to": "0xcac524bca292aaade2df8a05cc58f0a65b1b3bb9",
        "gas": "0x14661",
        "value": "0x0",
        "input": "0x095ea7b3000000000000000000000000287adef130eb012f43a57b2f074f57c2e63b1dcbffffffffffffffffffffffffffffffffffffffffffffffffffffffffffffffff",
        "nonce": "0x12",
        "chainId": "0xaa36a7"
      },
      "additionalContracts": [],
      "isFixedGasLimit": false
    }
  ],
  "receipts": [
    {
      "status": "0x1",
      "cumulativeGasUsed": "0x731630",
      "logs": [
        {
          "address": "0xcac524bca292aaade2df8a05cc58f0a65b1b3bb9",
          "topics": [
            "0x8c5be1e5ebec7d5bd14f71427d1e84f3dd0314c0f7b2291e5b200ac8c7c3b925",
            "0x000000000000000000000000f00b3321e87d0cfabe761b18a84333537e97e055",
            "0x000000000000000000000000287adef130eb012f43a57b2f074f57c2e63b1dcb"
          ],
          "data": "0xffffffffffffffffffffffffffffffffffffffffffffffffffffffffffffffff",
          "blockHash": "0x23d985c5aca2f5a0d8a31b4b907751ac28ad95b7da74a5acaf7415af5b8947a6",
          "blockNumber": "0x90cae7",
          "blockTimestamp": "0x68fd2004",
          "transactionHash": "0x1e8dc40787efdb91ae1849a78ded61b7e4e77016649e656f0227ac6ae8207919",
          "transactionIndex": "0x33",
          "logIndex": "0x3f",
          "removed": false
        }
      ],
      "logsBloom": "0x00000000000000000000000000000000000000000000000000040000000000000000000000000000000000000000800000000000000000000000000000200000000000000000000000000000000000000000000000000000000000000000000000000000000000000000000000000000000000000000000002010000000000000000008000000200000000000000000000000000000000000000000000000000020000000000000000000000000040000000000000000000000000000000000000000000000000000000000000000000200000000000000000000000000000000010000000000000000000000000000800000000000000000000000000000000",
      "type": "0x2",
      "transactionHash": "0x1e8dc40787efdb91ae1849a78ded61b7e4e77016649e656f0227ac6ae8207919",
      "transactionIndex": "0x33",
      "blockHash": "0x23d985c5aca2f5a0d8a31b4b907751ac28ad95b7da74a5acaf7415af5b8947a6",
      "blockNumber": "0x90cae7",
      "gasUsed": "0xec4c",
      "effectiveGasPrice": "0xf4249",
      "from": "0xf00b3321e87d0cfabe761b18a84333537e97e055",
      "to": "0xcac524bca292aaade2df8a05cc58f0a65b1b3bb9",
      "contractAddress": null
    }
  ],
  "libraries": [],
  "pending": [],
  "returns": {},
  "timestamp": 1761419268,
  "chain": 11155111,
  "commit": "ed447ff"
}