{
  "transactions": [
    {
      "hash": "0x9c52fe04cdf4fc64caba4c859b103e058c58b2c1f2bf96258db5e14cc73c3118",
      "transactionType": "CALL",
      "contractName": null,
      "contractAddress": "0xcac524bca292aaade2df8a05cc58f0a65b1b3bb9",
      "function": "approve(address,uint256)",
      "arguments": [
        "0xD7E96fb0aE8aA572466f668445eA558266cc4B34",
        "1000000000000"
      ],
      "transaction": {
        "from": "0xf00b3321e87d0cfabe761b18a84333537e97e055",
        "to": "0xcac524bca292aaade2df8a05cc58f0a65b1b3bb9",
        "gas": "0x14491",
        "value": "0x0",
        "input": "0x095ea7b3000000000000000000000000d7e96fb0ae8aa572466f668445ea558266cc4b34000000000000000000000000000000000000000000000000000000e8d4a51000",
        "nonce": "0x1b",
        "chainId": "0xaa36a7"
      },
      "additionalContracts": [],
      "isFixedGasLimit": false
    }
  ],
  "receipts": [
    {
      "status": "0x1",
      "cumulativeGasUsed": "0x497938",
      "logs": [
        {
          "address": "0xcac524bca292aaade2df8a05cc58f0a65b1b3bb9",
          "topics": [
            "0x8c5be1e5ebec7d5bd14f71427d1e84f3dd0314c0f7b2291e5b200ac8c7c3b925",
            "0x000000000000000000000000f00b3321e87d0cfabe761b18a84333537e97e055",
            "0x000000000000000000000000d7e96fb0ae8aa572466f668445ea558266cc4b34"
          ],
          "data": "0x000000000000000000000000000000000000000000000000000000e8d4a51000",
          "blockHash": "0x067ca5368084ac0df001c29c2ca57589c0b26724bd705fd6c480c9d6a1bf0eab",
          "blockNumber": "0x90cd14",
          "blockTimestamp": "0x68fd3a38",
          "transactionHash": "0x9c52fe04cdf4fc64caba4c859b103e058c58b2c1f2bf96258db5e14cc73c3118",
          "transactionIndex": "0x27",
          "logIndex": "0x39",
          "removed": false
        }
      ],
      "logsBloom": "0x00000000000000000000000000000000000000000000000000040000000000000000000000000000000000000000800000000000000000000000000000200000000000000000000000000000000000000000000000000000000000040000000000000000000000000000000000000000000000000000000000010000000000000000008000000000000000000000000000000000000000000000000000000000020000080000000000000000000040000000000000000000040000000000000000000000000000000000000000000000200000000000000000000000000000000010000000000000000000000000000000000000000000000000000000000000",
      "type": "0x2",
      "transactionHash": "0x9c52fe04cdf4fc64caba4c859b103e058c58b2c1f2bf96258db5e14cc73c3118",
      "transactionIndex": "0x27",
      "blockHash": "0x067ca5368084ac0df001c29c2ca57589c0b26724bd705fd6c480c9d6a1bf0eab",
      "blockNumber": "0x90cd14",
      "gasUsed": "0xeafc",
      "effectiveGasPrice": "0xf4249",
      "from": "0xf00b3321e87d0cfabe761b18a84333537e97e055",
      "to": "0xcac524bca292aaade2df8a05cc58f0a65b1b3bb9",
      "contractAddress": null
    }
  ],
  "libraries": [],
  "pending": [],
  "returns": {},
  "timestamp": 1761425976,
  "chain": 11155111,
  "commit": "ed447ff"
}