{
  "transactions": [
    {
      "hash": "0xdd1bc03d4b5942995234bea36b9e1949c35de5cf5e46be49f72b4d54c0f5e71c",
      "transactionType": "CALL",
      "contractName": null,
      "contractAddress": "0xcac524bca292aaade2df8a05cc58f0a65b1b3bb9",
      "function": "approve(address,uint256)",
      "arguments": [
        "0xD7E96fb0aE8aA572466f668445eA558266cc4B34",
        "3000000"
      ],
      "transaction": {
        "from": "0xf00b3321e87d0cfabe761b18a84333537e97e055",
        "to": "0xcac524bca292aaade2df8a05cc58f0a65b1b3bb9",
        "gas": "0xe83e",
        "value": "0x0",
        "input": "0x095ea7b3000000000000000000000000d7e96fb0ae8aa572466f668445ea558266cc4b3400000000000000000000000000000000000000000000000000000000002dc6c0",
        "nonce": "0x1d",
        "chainId": "0xaa36a7"
      },
      "additionalContracts": [],
      "isFixedGasLimit": false
    },
    {
      "hash": "0x764391cc189d625d6043a5a876e5c42fb335a1e1ab74cf6cbc522aa73dc07bb1",
      "transactionType": "CALL",
      "contractName": null,
      "contractAddress": "0xd7e96fb0ae8aa572466f668445ea558266cc4b34",
      "function": "payToHandleWithSignature(string,string,uint256,uint256,uint256,bytes)",
      "arguments": [
        "evvmtest",
        "telegram",
        "3000000",
        "1729891530012345",
        "1761430104",
        "0x7093929655e044514edadc41cab12e88e86b1479ec38244742b4a130caec1e8a75c4c7811b4db340f476b933a19fc8f12cc84f79217ac622f51593518add597d1c"
      ],
      "transaction": {
        "from": "0xf00b3321e87d0cfabe761b18a84333537e97e055",
        "to": "0xd7e96fb0ae8aa572466f668445ea558266cc4b34",
        "gas": "0x2e560",
        "value": "0x0",
        "input": "0xaafe1a4300000000000000000000000000000000000000000000000000000000000000c0000000000000000000000000000000000000000000000000000000000000010000000000000000000000000000000000000000000000000000000000002dc6c000000000000000000000000000000000000000000000000000062553c22576b90000000000000000000000000000000000000000000000000000000068fd4a58000000000000000000000000000000000000000000000000000000000000014000000000000000000000000000000000000000000000000000000000000000086576766d74657374000000000000000000000000000000000000000000000000000000000000000000000000000000000000000000000000000000000000000874656c656772616d00000000000000000000000000000000000000000000000000000000000000000000000000000000000000000000000000000000000000417093929655e044514edadc41cab12e88e86b1479ec38244742b4a130caec1e8a75c4c7811b4db340f476b933a19fc8f12cc84f79217ac622f51593518add597d1c00000000000000000000000000000000000000000000000000000000000000",
        "nonce": "0x1e",
        "chainId": "0xaa36a7"
      },
      "additionalContracts": [],
      "isFixedGasLimit": false
    }
  ],
  "receipts": [
    {
      "status": "0x1",
      "cumulativeGasUsed": "0x96cd84",
      "logs": [
        {
          "address": "0xcac524bca292aaade2df8a05cc58f0a65b1b3bb9",
          "topics": [
            "0x8c5be1e5ebec7d5bd14f71427d1e84f3dd0314c0f7b2291e5b200ac8c7c3b925",
            "0x000000000000000000000000f00b3321e87d0cfabe761b18a84333537e97e055",
            "0x000000000000000000000000d7e96fb0ae8aa572466f668445ea558266cc4b34"
          ],
          "data": "0x00000000000000000000000000000000000000000000000000000000002dc6c0",
          "blockHash": "0x8e86474e98ac6a51544e32971ec792b1d2c7471702ebf1ae10a5e541d18df863",
          "blockNumber": "0x90cd43",
          "blockTimestamp": "0x68fd3c6c",
          "transactionHash": "0xdd1bc03d4b5942995234bea36b9e1949c35de5cf5e46be49f72b4d54c0f5e71c",
          "transactionIndex": "0x3a",
          "logIndex": "0x4b",
          "removed": false
        }
      ],
      "logsBloom": "0x00000000000000000000000000000000000000000000000000040000000000000000000000000000000000000000800000000000000000000000000000200000000000000000000000000000000000000000000000000000000000040000000000000000000000000000000000000000000000000000000000010000000000000000008000000000000000000000000000000000000000000000000000000000020000080000000000000000000040000000000000000000040000000000000000000000000000000000000000000000200000000000000000000000000000000010000000000000000000000000000000000000000000000000000000000000",
      "type": "0x2",
      "transactionHash": "0xdd1bc03d4b5942995234bea36b9e1949c35de5cf5e46be49f72b4d54c0f5e71c",
      "transactionIndex": "0x3a",
      "blockHash": "0x8e86474e98ac6a51544e32971ec792b1d2c7471702ebf1ae10a5e541d18df863",
      "blockNumber": "0x90cd43",
      "gasUsed": "0xa824",
      "effectiveGasPrice": "0xf4248",
      "from": "0xf00b3321e87d0cfabe761b18a84333537e97e055",
      "to": "0xcac524bca292aaade2df8a05cc58f0a65b1b3bb9",
      "contractAddress": null
    },
    {
      "status": "0x1",
      "cumulativeGasUsed": "0x99dc5b",
      "logs": [
        {
          "address": "0x09cb0b572648431fdcecbd494e3950d0a698fb50",
          "topics": [
            "0x2af71f10069c28afc67c3752e87e0e4616a97948d33c8f404a856c0c334b3e01",
            "0x000000000000000000000000f00b3321e87d0cfabe761b18a84333537e97e055",
            "0x00000000000000000000000000000000000000000000000000062553c22576b9"
          ],
          "data": "0x",
          "blockHash": "0x8e86474e98ac6a51544e32971ec792b1d2c7471702ebf1ae10a5e541d18df863",
          "blockNumber": "0x90cd43",
          "blockTimestamp": "0x68fd3c6c",
          "transactionHash": "0x764391cc189d625d6043a5a876e5c42fb335a1e1ab74cf6cbc522aa73dc07bb1",
          "transactionIndex": "0x3e",
          "logIndex": "0x4c",
          "removed": false
        },
        {
          "address": "0xcac524bca292aaade2df8a05cc58f0a65b1b3bb9",
          "topics": [
            "0xddf252ad1be2c89b69c2b068fc378daa952ba7f163c4a11628f55a4df523b3ef",
            "0x000000000000000000000000f00b3321e87d0cfabe761b18a84333537e97e055",
            "0x000000000000000000000000d7e96fb0ae8aa572466f668445ea558266cc4b34"
          ],
          "data": "0x00000000000000000000000000000000000000000000000000000000002dc6c0",
          "blockHash": "0x8e86474e98ac6a51544e32971ec792b1d2c7471702ebf1ae10a5e541d18df863",
          "blockNumber": "0x90cd43",
          "blockTimestamp": "0x68fd3c6c",
          "transactionHash": "0x764391cc189d625d6043a5a876e5c42fb335a1e1ab74cf6cbc522aa73dc07bb1",
          "transactionIndex": "0x3e",
          "logIndex": "0x4d",
          "removed": false
        },
        {
          "address": "0xd7e96fb0ae8aa572466f668445ea558266cc4b34",
          "topics": [
            "0xefc092165fe2650273ba45b62d610b1615c121bdbde542377831a3033241af0c",
            "0x000000000000000000000000f00b3321e87d0cfabe761b18a84333537e97e055",
            "0xb25165d8d83d96960019512ded4c12a03b27696c5c911eb9ae92049d1c2bc5b8",
            "0x31066065584ba0bd58722fc7a0935a715125f689edd301f49ed4a205b9a148c2"
          ],
          "data": "0x00000000000000000000000000000000000000000000000000000000002dc6c00000000000000000000000000000000000000000000000000000000000000000",
          "blockHash": "0x8e86474e98ac6a51544e32971ec792b1d2c7471702ebf1ae10a5e541d18df863",
          "blockNumber": "0x90cd43",
          "blockTimestamp": "0x68fd3c6c",
          "transactionHash": "0x764391cc189d625d6043a5a876e5c42fb335a1e1ab74cf6cbc522aa73dc07bb1",
          "transactionIndex": "0x3e",
          "logIndex": "0x4e",
          "removed": false
        }
      ],
      "logsBloom": "0x00020000000000000000000000000004000000000000000000040000000000000000020000000000000000000000800000000000000000000004000000000000000000000000000000000008000000000000000000000080000000040000000000000000000000000001000000000000000200008000000000010010000000000000008000030000000000000000000000900000000000000000000000400004000000080000000000000000000042000000000000000000040000000000000000000002000000000000010000000000200028000000000000000000000000000004000000000000000000000000000000000000000000000000100000000000",
      "type": "0x2",
      "transactionHash": "0x764391cc189d625d6043a5a876e5c42fb335a1e1ab74cf6cbc522aa73dc07bb1",
      "transactionIndex": "0x3e",
      "blockHash": "0x8e86474e98ac6a51544e32971ec792b1d2c7471702ebf1ae10a5e541d18df863",
      "blockNumber": "0x90cd43",
      "gasUsed": "0x218bf",
      "effectiveGasPrice": "0xf4248",
      "from": "0xf00b3321e87d0cfabe761b18a84333537e97e055",
      "to": "0xd7e96fb0ae8aa572466f668445ea558266cc4b34",
      "contractAddress": null
    }
  ],
  "libraries": [],
  "pending": [],
  "returns": {},
  "timestamp": 1761426542,
  "chain": 11155111,
  "commit": "ed447ff"
}